:020000040800F2
:100000009818002009040008A1020008A3020008B3
:10001000A5020008A7020008A902000800000000CD
:10002000000000000000000000000000AB0200081B
:10003000AD02000800000000AF020008B102000895
:1000400023040008230400082304000823040008F4
:1000500023040008230400082304000823040008E4
:1000600023040008230400082304000823040008D4
:1000700023040008230400082304000823040008C4
:1000800023040008230400082304000823040008B4
:1000900023040008230400082304000823040008A4
:1000A00023040008792A0008230400082304000818
:1000B0002304000823040008230400082304000884
:1000C0002304000823040008230400082304000874
:1000D0002304000823040008230400082304000864
:1000E0002304000823040008230400082304000854
:1000F0002304000823040008230400082304000844
:100100002304000823040008230400082304000833
:100110002304000823040008230400082304000823
:100120002304000823040008230400082304000813
:1001300000F002F800F05EF80AA090E8000C82449B
:100140008344AAF10107DA4501D100F053F8AFF278
:10015000090EBAE80F0013F0010F18BFFB1A43F0A5
:1001600001031847584C0000784C000010F8013B80
:100170000A4413F0030408BF10F8014B1D1108BF17
:1001800010F8015B641E05D010F8016B641E01F8C5
:10019000016BF9D1002D15D010F8014B03F00C03C1
:1001A0000C2BA1EB04040ABF10F8013BA4EB831451
:1001B000A4EB032405F1010314F8016B5B1E01F8A5
:1001C000016BF9D5914238BF10F8013BD1D370478C
:1001D0000023002400250026103A28BF78C1FBD850
:1001E000520728BF30C148BF0B6070471FB51FBD05
:1001F00010B510BD03F04BF81146FFF7F7FF00F004
:1002000009F803F069F803B4FFF7F2FF03BC03F049
:1002100071F8000042F21075284601F015FD02F059
:1002200035FF1B4C0220207002F08AF92178012949
:1002300004D002290AD0032908D00AE01420208221
:1002400014486421B0FBF1F0606102E013491248E8
:100250000860284601F0F8FC02F098F901F02EFD44
:1002600001F00DFD284601F0EFFC01F0CBFB284624
:1002700001F0EAFC02F0A5FD284601F0E5FC02F0E1
:100280009AF800BF02F0A0FA02F05AFAFAE700006A
:100290000000002080380100000061448007002039
:1002A0007047FEE7FEE7FEE7FEE7704770477047DE
:1002B000704700000CB500214B4801910091026885
:1002C00042F4803202604FF4A063026802F400320C
:1002D0000092019A521C0192009A12B9019A9A4214
:1002E000F3D10268920333D5012100913F490A6896
:1002F00042F010020A600A6822F003020A600A68EB
:1003000042F002020A604168416041684160416810
:1003100041F480614160416821F47C114160416891
:1003200041F4E8114160016841F0807101600168A9
:100330008901FCD5416821F003014160416841F029
:10034000020141604168C1F381010229FAD10CBD6B
:1003500000910CBD244810B5016841F00101016015
:100360004168234A114041600168224A11400160FE
:10037000016821F480210160416821F4FE0141609F
:100380004FF41F018160FFF795FF1B494FF000609C
:10039000086010BD144910B54868184A10F00C03E5
:1003A000174803D0042B01D0082B0AD002604968FB
:1003B000134AC1F30311121D515C0268CA40026066
:1003C00010BD4A684B6802F470124FF0020413F437
:1003D000803F04EB924202D04B689B0301D5094B4E
:1003E00000E0064B5A43E1E70010024000200240C3
:1003F0000000FFF8FFFFF6FE08ED00E000127A00B3
:100400005000002000093D00094880470948004786
:10041000FEE7FEE7FEE7FEE7FEE7FEE7FEE7FEE7B4
:10042000FEE7FEE704480549054A064B7047000011
:100430005503000831010008981200209818002088
:10044000981400209814002028490843284908607F
:10045000704770B50F23C47801780122F4B1244CA1
:100460002468457804F4E064C4F5E064240AC4F127
:100470000406E3408478B5401C402C4301F1E021A0
:10048000230181F80034007800F01F018A40400900
:10049000800000F1E020C0F8002170BD01F01F00D5
:1004A00082404809800000F1E020C0F8802170BD42
:1004B000104A114001430E48001F016070470C4A6A
:1004C000121D0029116801D0014300E08143116031
:1004D00070474FF0E0210428086903D020F00400A1
:1004E0000861704740F00400FAE700000000FA05D8
:1004F0000CED00E080FFFF1FC54910B5884202D116
:10050000012144150AE0C349884202D101210415A2
:1005100004E0C14988420AD10121CC03204600F001
:10052000BAFC2046BDE81040002100F0B4BC10BD6C
:1005300010B54268B94B0C791A400B6842EA0422A4
:10054000134343608368B64A1340D1E90242224311
:100550004C7943EA44031A438260C26A097C22F45C
:100560007002491EC9B242EA0151C16210BD0021A8
:100570000160017141718160C160012101747047A6
:100580000029816802D041F0010101E021F0010160
:10059000816070470029816802D041F4807101E0D8
:1005A00021F4807181607047002A4268C9B201D08D
:1005B0000A4300E08A4342607047816841F00801C5
:1005C00081607047014600208968090700D5012035
:1005D0007047816841F00401816070470146002046
:1005E0008968490700D5012070470029816802D039
:1005F00041F4A00101E021F4A001816070470146AF
:1006000000208968490200D5012070474268491ED0
:1006100022F4604242EA413141607047002941685A
:1006200002D041F4006101E021F4006141607047B3
:1006300070B5072409290AD9C568A1F10A0606EB95
:100640004606B440A543B3401D43C56007E00569B5
:1006500001EB4106B440A543B3401D4305611F2390
:10066000072A09D2446B521E02EB820293409C433C
:1006700091400C43446370BD0D2A09D2046BD21F14
:1006800002EB820293409C4391400C43046370BD93
:10069000C46A0D3A02EB820293409C4391400C43A2
:1006A000C46270BD0029816802D041F4801101E06C
:1006B00021F4801181607047C06C80B2704754484B
:1006C0004C30006870470029416802D041F48061D5
:1006D00001E021F48061416070470029416802D047
:1006E00041F4805101E021F48051416070478268FB
:1006F00022F4E0420A43826070470029816802D0F8
:1007000041F4004101E021F400418160704700297B
:10071000816802D041F4021101E021F402118160EC
:100720007047014600208968890200D50120704782
:1007300070B5072409290AD9C568A1F10A0606EB94
:100740004606B440A543B3401D43C56007E00569B4
:1007500001EB4106B440A543B3401D430561836BE3
:10076000C3F30154121B921C02EB82041F22A2400D
:100770009343A1400B43836370BD826B491E22F4F7
:10078000401242EA01518163704708B50844009065
:10079000026008BD08B5084428300090006880B2A7
:1007A00008BD42681F4B1A400A43426070474162CD
:1007B00082627047426822F01F020A43426070471B
:1007C000134908310028086802D040F4000001E015
:1007D00020F40000086070470246002012680A42B8
:1007E00000D001207047C9430160704710B5024630
:1007F000002054680B0AC9B20C401168194202D09B
:10080000002C00D0012010BD6FEA1121016070475B
:100810000024014000280140003C0140FFFEF0FFA1
:10082000FDF7F1FFFFFD3FFF01684FF6FE7211403B
:1008300001600021016041608160C1606A496A4ACB
:100840000839904203D1486840F00F0006E0664A3C
:100850001432904204D1486840F0F000486070477C
:10086000614A2832904203D1486840F47060F5E74D
:100870005D4A3C32904203D1486840F47040EDE755
:10088000594A5032904203D1486840F47020E5E75D
:10089000554A6432904203D1486840F47000DDE765
:1008A000514A7832904203D1486840F07060D5E7F1
:1008B0004E4A111F904203D1086840F00F0006E035
:1008C0004A4A1432904204D1086840F0F0000860AF
:1008D0007047464A2832904203D1086840F470605D
:1008E000F5E7424A3C32904203D1086840F4704038
:1008F000EDE73E4A50329042EAD1086840F4702059
:10090000E5E730B5036847F6F07293430C6A8A68EE
:100910002243D1E904452C4322438C692243CC690C
:1009200022434C6A22438C6A22431A430260CA68FB
:1009300042600A6882604968C16030BD0021016080
:1009400041608160C160016141618161C161016299
:100950004162816270470029016802D041F00101C3
:1009600002E04FF6FE72114001607047002A0268F3
:1009700001D00A4300E08A4302607047416070473B
:10098000406880B2704701460020CA0002D5174A6D
:10099000083A01E0144A083A12680A4200D00120DD
:1009A0007047C10003D51149091F086070470E49FF
:1009B00008394860704701460020CA0002D50B4A3A
:1009C000083A01E0084A083A12680A4200D00120B9
:1009D0007047C10003D50549091F086070470249E7
:1009E00008394860704700000800024008040240CF
:1009F000914910B5884206D10121042000F04BFA3C
:100A0000002104203BE08D49884206D101210820C5
:100A100000F041FA0021082031E08949884206D1DE
:100A20000121102000F037FA0021102027E085492D
:100A3000884206D10121202000F02DFA002120203B
:100A40001DE08149884206D10121402000F023FAAF
:100A50000021402013E07D49884206D101218020F9
:100A600000F019FA0021802009E0794988420AD172
:100A700084150121204600F00EFA00212046BDE831
:100A8000104000F008BA10BD10B50121084600F072
:100A900002FA0021BDE81040012000F0FCB9F0B5D9
:100AA000CA78002502F00F03D20601D58A781343D5
:100AB0000A784FF00F0E12F0FF0F4FF001021DD019
:100AC000D0F800400F8802FA05F63740B74211D13E
:100AD0004FEA850C0EFA0CF724EA070703FA0CF428
:100AE0003C43CF78282F02D0482F02D002E0466145
:100AF00000E006616D1C082DE4D304600C88FF2C17
:100B00001ED944685FF0000606F1080702FA07F5EF
:100B10000F882F40AF420FD14FEA860C0EFA0CF728
:100B2000BC4303FA0CF73C43CF78282F00D1456132
:100B3000CF78482F00D10561761C082EE4D344609D
:100B4000F0BD4FF6FF710180022181700421C17058
:100B500070470246002092680A4200D00120704788
:100B6000806880B2704702460020D2680A4200D0F6
:100B700001207047C06880B27047016170474161D1
:100B800070470AB10161704741617047C1607047A9
:100B900041F480328261816182618169806970473C
:100BA0002C4B10B51A684FF68074224042EA0010B0
:100BB0000843186010BD2849C8617047F0B5254C3E
:100BC000002801DAE36900E06368420D120185B292
:100BD000C0F301579540C0F30346032F05D0C2026E
:100BE0000AD50322B240934307E023F070626368A2
:100BF00023F07063636002E0AB4343F0706201B1C5
:100C00002A43002801DAE261F0BD6260F0BD10B550
:100C10008A0721F003040F49130F21440F228C6827
:100C20009A4094438C608A68984002438A6010BD61
:100C30000949C1F8DC00704700080140000C014080
:100C4000001001400014014000180140001C014048
:100C5000002001400000014000002042A44801683B
:100C600041F0010101604168A24A11404160016800
:100C7000A14A11400160016821F4802101604168AE
:100C800021F4FE0141604FF41F01816070479849D3
:100C90000A6822F480320A600A6822F480220A601C
:100CA000B0F5803F07D0B0F5802F03D1086840F43D
:100CB000A02008607047086840F48030F9E70246D9
:100CC000002053098A49012B0AD0022B0AD0496A15
:100CD00002F01F02012393400B4200D00120704715
:100CE0000968F5E7096AF3E718B500204FF4A06436
:100CF00000903120FFF7E3FF0099491C0091A142C9
:100D000001D00028F5D03120FFF7D9FF002800D00E
:100D1000012018BD76490A6822F0F80242EAC000B4
:100D200008607047754908607047714A5368084306
:100D300023F47C131843506070477049086670476D
:100D40006B4A516821F003010143516070476848C4
:100D5000406800F00C007047654A516821F0F001CE
:100D6000014351607047624A516821F4E0610143D8
:100D7000516070475E494A6822F4605242EAC000FE
:100D8000486070475A4A0029517A01D0014300E077
:100D90008143517270475949C1F8D8007047544A8D
:100DA000516821F44041014351607047504900228D
:100DB00081F8202081F82020012802D0042802D1C7
:100DC000052081F8200070474D4908607047484968
:100DD0000A6A02430A627047494944390860704709
:100DE00030B543494A6812F00C03464A03D0042B3D
:100DF00001D0082B21D002604A680F23424C03EA3D
:100E00001212A35C0268DA4042604B68072505EACB
:100E10001323E35C22FA03F383604B6805EAD323D0
:100E2000E35CDA40C2604968032303EA9131231F7F
:100E3000595CB2FBF1F1016130BD4A684B6802F4C4
:100E400070124FF0020413F4803F04EB924202D080
:100E50004B689B0301D52D4B00E02A4B5A43CAE750
:100E6000234A0029516901D0014300E081435161C7
:100E700070471F4A0029916901D0014300E0814376
:100E8000916170471A4A0029D16901D0014300E0FD
:100E90008143D1617047164A0029D16801D00143CE
:100EA00000E08143D1607047114A0029116901D0E7
:100EB000014300E0814311617047114940390860E6
:100EC00070470E49C86470470949C871704708489F
:100ED000416A41F0807141627047054A0146002035
:100EE00092680A4200D00120704701498872704719
:100EF000001002400000FFF8FFFFF6FE0000424233
:100F00008004424200127A006800002000093D007F
:100F1000F94910B5884202D10121C41486E0B0F12C
:100F2000804F09D0F54988420DD101210220FFF7F9
:100F3000BBFF0021022064E001210846FFF7B4FF57
:100F4000002101205DE0EE49884206D10121042004
:100F5000FFF7AAFF0021042053E0EA49884206D1A6
:100F600001210820FFF7A0FF0021082049E0E64901
:100F7000884206D101211020FFF796FF00211020A2
:100F80003FE0E249884206D101212020FFF78CFF93
:100F90000021202035E0DE49884202D1012144149D
:100FA00044E0DC49884202D10121CC043EE0DA4928
:100FB000884202D101210C0538E0D849884202D18B
:100FC00001214C0532E0D649884206D1012140205A
:100FD000FFF76AFF0021402013E0D249884206D182
:100FE00001218020FFF760FF0021802009E0CE4929
:100FF00088420AD1841501212046FFF755FF0021C0
:101000002046BDE81040FFF74FBFC849884202D1D3
:1010100001210C040AE0C649884202D101214C0496
:1010200004E0C44988420AD101218C042046FFF71C
:1010300032FF2046BDE810400021FFF72CBF10BD55
:1010400030B50288AC4BB24C98420DD0A0420BD0C8
:10105000B0F1804F08D0A94DA84205D0A84DA842B4
:1010600002D0A84DA84203D122F070054A882A4335
:10107000A54DA84206D0A54DA84203D022F4407544
:10108000CA882A4302808A8882850A880285984213
:101090000AD0A04208D0A54A904205D0A44A904266
:1010A00002D0A44A904201D1097A018601218182AD
:1010B00030BD30B5028C22F001020284028C83889C
:1010C000048B22F0020224F073050C882C430D8956
:1010D00015434A882A43884DA8420BD08C4DA8421C
:1010E00008D0924DA84205D0914DA84202D0914D12
:1010F000A8420DD122F008054A8923F440732A43FF
:1011000022F004058A882A438D891D43CB892B430D
:1011100083800483C9888186028430BD70B5028CC7
:1011200022F010020284028C8488038B0D8823F441
:10113000E6464FF6FF7303EA052535430E8922F094
:10114000200203EA061616434A8803EA02123243D3
:10115000694EB04202D06E4EB04215D122F08006E8
:101160004A8924F4406403EA0212324322F0400622
:101170008A8803EA021232438E8903EA86062643EE
:10118000CC8903EA8404344384800583C9880187B9
:10119000028470BD70B5028C22F480720284028CCD
:1011A0008488838B0D8823F073031D4322F400731E
:1011B0000E894FF6FF7202EA06261E434B8802EAAA
:1011C000032333434C4EB04202D0514EB04215D1AE
:1011D00023F400664B8924F4405402EA032333438A
:1011E00023F480668B8802EA032333438E8902EA64
:1011F00006162643CC8902EA04143443848085838E
:10120000C9888187038470BD70B5028C22F4805236
:101210000284048C8288838B0D8823F4E6464FF683
:10122000FF7303EA0525354324F400560C8903EACD
:10123000043434434E8803EA063626432E4CA0423B
:1012400002D0334CA04205D122F480448A8903EABB
:101250008212224382808583C988A0F840100684C8
:1012600070BD828B22F440628283828B4FF6FF73C3
:1012700003EA01210A4382837047828B22F00C0229
:101280008283828B0A4382837047028B22F44062FE
:101290000283028B4FF6FF7303EA01210A430283A4
:1012A0007047F0B5048C24F010040484078B048C80
:1012B0004FF6FF7527F4734705EA03333B4305EA0E
:1012C00002221A430C4B05EA011698420ED0104B2D
:1012D00098420BD0B0F1804F08D0084B984205D00F
:1012E000074B984202D0074B984225D124F02001A9
:1012F000314341F0100124E0002C01400004004083
:1013000000080040000C00400010004000140040A5
:1013100000340140004C01400050014000540140A5
:1013200000180040001C0040002000400040014028
:10133000004401400048014024F0A0030B4343F067
:10134000100102830184F0BD028B22F00C020283A3
:10135000028B0A430283704770B5048C24F00104A9
:101360000484058B048C4FF6FF7606EA03131343BF
:1013700025F0F305F94A2B4390420ED0F84A9042EB
:101380000BD0B0F1804F08D0F64A904205D0F64A13
:10139000904202D0F54A904202D124F0020201E0CC
:1013A00024F00A020A4342F001010383018470BD64
:1013B0002DE9F05F0D4604460888E84FDFF8A0C32A
:1013C000DFF8A0834988AA882B894FF0804960B351
:1013D000042832D04FF6FF7E082836D0208C9B465A
:1013E00020F480502084A38B268C704600EA0222D1
:1013F00023F473431A4300EA0B3010430EEA013E14
:10140000BC420BD0644509D04C4507D0444505D0BB
:10141000D54A944202D0D54B9C4245D126F4005186
:1014200041EA0E0141F4805143E02046FFF794FF6A
:10143000E9882046BDE8F05F86E72046FFF731FFE8
:10144000E9882046BDE8F05F1FE7208C20F480701B
:101450002084B4F81CA0208C0EEA031313432AF056
:10146000F30A0EEA012B43EA0A03BC420BD064459F
:1014700009D04C4507D0444505D0BB4A944202D020
:10148000BA4A944204D120F4007040EA0B0002E012
:1014900020F42060084340F48070A3832084E9880E
:1014A0002046BDE8F05FE8E626F402420A4342F433
:1014B0008051A08320462184E988BDE8F05FD0E612
:1014C0002DE9F0410C46002649880746012501B95F
:1014D0000226A288012A00D102252088238900281B
:1014E000384610D0FFF7DDFEE1883846FFF7CDFE25
:1014F00023892A4631463846FFF72EFFE1883846D1
:10150000BDE8F04120E7FFF727FFE1883846FFF705
:101510001BFF23892A4631463846FFF7C2FEE18881
:101520003846BDE8F041B0E610B50A884B88CC8853
:101530001A438B8823431A430B891A434B898989A1
:101540001A430A43A0F8442010BD4FF6FF71818072
:1015500000210180C180418001727047002101801B
:1015600041808180C180018141818181C181704739
:1015700000210180418001228280C1800181704769
:101580000021018041808180C18001814181818170
:1015900070470029018802D041F0010101E021F0EB
:1015A000010101807047002930F8441F02D041F446
:1015B000004101E0C1F30E0101807047002A8289D9
:1015C00001D00A4300E08A438281704781827047DC
:1015D0001143A0F848107047002A828901D00A43BD
:1015E00000E08A4382817047018921F0070101816F
:1015F0007047028922F070020A430281704700B5E9
:101600000346FFF7F6FF188940F00700188100BD78
:1016100070B516460D46602904464FF0010231466A
:101620000AD0FFF799FE29462046FFF7E2FF2089FE
:1016300040F00700208170BDFFF733FEF3E730B5BF
:1016400004894FF6FF7505EA03231343E4B20B4305
:101650002343038130BD10B50446FFF7F0FF208916
:1016600040F07700208110BD10B50446FFF7E7FF7A
:10167000208940F48040208110BD0185828270471E
:10168000028822F070020A430280704770B5058913
:10169000048B068C25F007050D434FF6FC410C40EA
:1016A00040F201110C434FF6FF7101EA031126F0DD
:1016B00022061143314305810483018470BD028BEE
:1016C00022F070020A4302837047028B4FF6FF73C9
:1016D00022F4E04203EA0121114301837047828B27
:1016E00022F070020A4382837047828B4FF6FF73A9
:1016F00022F4E04203EA012111438183704700296B
:10170000018802D041F0800101E021F080010180D8
:1017100070470029818802D041F0040101E021F0E6
:101720000401818070470029818802D041F00801BE
:1017300001E021F00801818070470029818802D0F2
:1017400041F0010101E021F0010181807047028B2D
:1017500022F008020A43028370470000002C014077
:10176000003401400004004000080040000C00402C
:10177000028B4FF6FF7322F4006203EA012111434A
:101780000183E9E7828B22F008020A438283E3E7C0
:10179000828B4FF6FF7322F4006203EA01211143AA
:1017A0008183D9E7028B22F004020A430283D3E744
:1017B000028B4FF6FF7322F4806203EA012111438A
:1017C0000183C9E7828B22F004020A438283C3E7C4
:1017D000828B4FF6FF7322F4806203EA01211143EA
:1017E0008183B9E7028B22F080020A430283B3E7C8
:1017F000028B4FF6FF73C2F30E0203EA012111437D
:101800000183A9E7828B22F080020A438283A3E747
:10181000828B4FF6FF73C2F30E0203EA01211143DC
:10182000818399E7028C22F002020A43028493E743
:10183000028C22F008020A4302848DE7028C4FF6E4
:10184000FF7322F0200203EA01111143018483E7B0
:10185000028C4FF6FF7322F0800203EA011111435C
:10186000018479E7028C4FF6FF7322F4007203EAD9
:101870000121114301846FE7028C4FF6FF7322F4BC
:10188000006203EA01211143018465E7028C4FF6EF
:10189000FF7322F4005203EA0131114301845BE734
:1018A00010B50123048C8B409C430484038C8A4034
:1018B0001343038410BD10B50423048C8B409C4358
:1018C0000484038C8A401343038410BD30B5012483
:1018D000058C00F118038C40A543058489B10829C3
:1018E0000FD0091FC1F34E001844016821F4E041F4
:1018F000016001684FF6FF7303EA022211430160A1
:1019000030BD03EB5100016821F0700101600168F6
:10191000F4E70029018802D041F0020101E021F042
:101920000201018018E70029018802D041F004017A
:1019300001E021F0040101800EE70029818802D036
:1019400041F0800101E021F08001818004E70288FC
:1019500022F00802028002880A430280FCE68288A4
:1019600022F07002828082880A438280F4E6028933
:1019700022F00702028102890A430281ECE6028911
:1019800022F08002028102890A430281E4E6818416
:10199000E2E68185E0E68186DEE60187DCE6818796
:1019A000DAE6A0F84010D7E6028822F440720280FE
:1019B00002880A430280CFE6808ECDE6008FCBE618
:1019C000808FC9E6B0F84000C6E6808CC4E6008D82
:1019D000C2E602460020128A0A4200D00120BBE67D
:1019E000C9430182B8E602460020138A92890B425D
:1019F00002EA010202D0002A00D00120ACE6C9436D
:101A00000182A9E6F0B5012191B04802FFF731FA51
:101A100001210846FFF724FA4FF40040FFF7BFF911
:101A20004020ADF82C007D4D00248DF82F400BA9EF
:101A30002846FFF734F88026ADF82C608DF82F404B
:101A40000BA92846FFF72BF81020ADF82C00744D99
:101A50008DF82F400BA92846FFF721F80220ADF89A
:101A60002C008DF82F400BA92846FFF718F8012508
:101A7000ADF82C508DF82F400BA96A48FFF70FF8EE
:101A80000CA8FEF774FD8DF834504FF460208DF8EB
:101A90003550CDE90E04644D05270C948DF8407047
:101AA0000CA92846FEF744FD01231A4606212846C4
:101AB000FEF7BEFD0123022207212846FEF7B8FDEE
:101AC000012303220E212846FEF7B2FD0123042242
:101AD0000B212846FEF7ACFD0123052208212846EC
:101AE000FEF7A6FD01212846FEF74AFD0121284602
:101AF000FEF750FD2846FEF760FD2846FEF762FD22
:101B00000028FAD12846FEF764FD2846FEF766FD58
:101B10000028FAD101212846FEF767FD434D2846EB
:101B2000FEF782FE404801A94C300090404881E811
:101B30009100A8150494CDE905608000079020204D
:101B400008900002CDE9090469462846FEF7D9FE4F
:101B500001212846FEF7FFFE11B0F0BDF0B5344A72
:101B600013883549334C087824F81030538804F131
:101B7000800525F81030928804F5807626F810202C
:101B8000401CC0B20870402801D3002008702B48C8
:101B90008078002818D10022134611464FEA02002F
:101BA00034F810703A4435F810703B4436F8107031
:101BB000401CC0B239444028F2D321489209C26186
:101BC0009A098909C0E90821F0BD30B518490A8889
:101BD0001B48C369D41AC4604A88036AD31A0361D4
:101BE0008A88456A521B8260C98841611549C97853
:101BF00005290BD001290CD003290AD002290AD0CB
:101C0000062908D0042903D1D11800E099184160B1
:101C100030BDA118FBE7E118F9E70000000801401A
:101C200000100140000C0140002401400800024067
:101C30006E080020780800207800002000000020B6
:101C4000200000201008002042F21071002805D06A
:101C5000491E0904090CFBD1401EFDD1704708B58F
:101C60004FF4E070ADF8000004208DF8030003206D
:101C70008DF8020069460F48FEF711FF08BD38B520
:101C80004FF4E050ADF8000004208DF80300032469
:101C90008DF8024069460748FEF701FF1020ADF8B5
:101CA00000008DF803008DF8024069460248FEF7F7
:101CB000F6FE38BD00100140000801408A480221AC
:101CC0008A4A80F82010B2FBF1F14908C1617047DF
:101CD00087490A78824204D00870002800D0012089
:101CE00070470220704782494A78824204D0487087
:101CF000002800D001207047022070477C498A7874
:101D0000824204D08870002800D001207047022051
:101D100070472DE9F041744C4FF6FF76754DE08C1D
:101D20004FF4806106EA4000E084208D06EA40001E
:101D30002085608D06EA400060852846FEF709FF91
:101D4000E18C0843E084E9142846FEF702FF218D68
:101D500008432085A9142846FEF7FBFE618D012269
:101D600008436085E18C00252186B14201D162865D
:101D700002E0002977D16586218D2186B14201D10B
:101D8000A28602E000296ED1A5862086B04201D14C
:101D9000E28602E0002866D1E58694F83200FFF77B
:101DA00097FF2087012803D0C8B3022839D03BE031
:101DB000A08D01F07CFB504A504B01F08BFB064696
:101DC0000F46E08D01F073FB4D4A4E4B01F082FB54
:101DD00032463B4601F096FA01F03CFB87B2E785BC
:101DE000E069B0FBF7F080B2608401F060FB464A26
:101DF000464B01F06FFB06468846A08C01F057FB6E
:101E0000434A444B01F066FB3246434601F07AFAFE
:101E100001F020FBA0840620B7FBF0F06087A585C9
:101E200002E0A08D401CA08594F8340094F8361090
:101E3000400000EB810094F832100844C0B2E0701A
:101E40002279904202D0A18F491CA187A18F638F74
:101E5000994247D3A587904242D02F4EB169F1B93C
:101E6000072819D200E03DE0DFE800F016070D0A70
:101E70001304100001F06AF811E001F081F80EE09F
:101E800001F098F80BE001F0AEF808E001F0C3F8BB
:101E900005E001F0D9F802E001F014F86584B069BA
:101EA00001281DD1E078072817D2DFE800F01607D7
:101EB0000D0A1304100001F0C7F811E001F046F814
:101EC0000EE001F05DF80BE001F074F808E001F0BD
:101ED0008AF805E001F09FF802E000F0F3FF658466
:101EE000E0782071BDE8F08110080020C07A100071
:101EF0007900002000100140BB270F0BB5A6C13FA1
:101F000011363CBD5296EB3F88F4DBD78173CE3F50
:101F1000DE02098A1F63E83F000000202DE9F0413E
:101F2000F74D064600294FF01001284602D0FEF773
:101F300024FE01E0FEF723FE08212846FEF71FFEDF
:101F400000244FF480784FF4007739462846FEF796
:101F500016FE30064146284602D5FEF70EFE01E089
:101F6000FEF70DFE39462846FEF707FE7006641C94
:101F7000060EE4B2082CE8D308212846FEF7FDFD42
:101F80002846BDE8F0411021FEF7F7BD2DE9F041EC
:101F9000DB4D064600294FF01001284602D0FEF71F
:101FA000ECFD01E0FEF7EBFD08212846FEF7E7FD1A
:101FB00000244FF480784FF4007739462846FEF726
:101FC000DEFD30064146284602D5FEF7D8FD01E089
:101FD000FEF7D3FD39462846FEF7CFFD7006641C98
:101FE000060EE4B2082CE8D308212846FEF7C5FD0A
:101FF0002846BDE8F0411021FEF7BFBD10B50446EC
:10200000B031C8B20021FFF789FF102040EA141058
:102010000021FFF783FF04F00F00BDE8104040F0FF
:10202000010000217AE710B500218D20FFF776FF2F
:1020300000211420FFF772FF0021BDE81040AF20FF
:102040006CE710B500218D20FFF768FF00211020FC
:10205000FFF764FF0021BDE81040AE205EE770B5D9
:102060005FF0000404F1B000C0B20021FFF756FF9A
:1020700000210846FFF752FF00211020FFF74EFF16
:10208000002501210020FFF749FF6D1CEDB2802DD6
:10209000F7D3641CE4B2082CE4D370BD2DE9F04101
:1020A000203A00240D468046D7B27F2803D900206D
:1020B0008D1C8046EDB22946FFF7A0FF914E00BF70
:1020C00004EB07100121305CFFF728FF641CE4B229
:1020D000082CF5D36D1CE9B24046FFF78FFF0024B2
:1020E00004EB071030440121007AFFF717FF641C4E
:1020F000E4B2082CF4D3BDE8F0812DE9F041203A98
:1021000000240D468046D7B27F2803D900208D1CBD
:102110008046EDB22946FFF771FF7A4E04EB0710B7
:102120000121305CFFF732FF641CE4B2082CF5D3C8
:102130006D1CE9B24046FFF761FF002404EB071075
:1021400030440121007AFFF721FF641CE4B2082C1F
:10215000F4D3D0E710B5832818D83F2916D8072321
:10216000A3EBD10301F00701C1F107040121A14054
:10217000654CDBB204EB0010002A30F81320C9B222
:1021800001D00A4300E08A4320F8132010BD024624
:10219000012000E05043491EC9B2FBD270472DE92F
:1021A000F0478046002608981D4691468A463446E8
:1021B000470821E0281B401EC1B20A20FFF7E7FFB5
:1021C000B9FBF0F00A21B0FBF1F201FB120026B9D5
:1021D000691E8C4201DA30B101263030C2B207FBF1
:1021E0000480C0B203E007FB0480C0B22022514645
:1021F000FFF754FF641CE4B2AC42DBD3BDE8F087C8
:102200002DE9F041984617460E460446002512E097
:10221000B8F1000F3146204602D0FFF73FFF01E042
:10222000FFF76BFF0834E4B2782C02D90024B61C07
:10223000F6B26D1CEDB27A5D002AE9D15BE72DE9BB
:10224000F04F203A9C460C468346884602F0FF0930
:102250000025DDF824A02FE0BCF10C0F08D02B499D
:1022600001EB09100027465D300607D5524609E00C
:10227000274909EB490001EB8000F3E7BAF1000FB1
:1022800012D0002221465846FFF764FF7006641CF6
:10229000060EE4B2A4EB0800604507D10BF1010083
:1022A000444600F0FF0B05E00122EBE77F1CFFB284
:1022B000082FD9D36D1CEDB26545CDD3BDE8F08FA5
:1022C000F8B516460D460446012714E07E2C02D9C7
:1022D00000241035EDB23A2D03D900242546FFF72E
:1022E000BEFE00973278102329462046FFF7A7FF4D
:1022F0000834E4B2761C30780028E7D1F8BD00003D
:10230000000C0140CA470008F8090020DA41000823
:10231000663D00082DE9F0411E4615460F468046F1
:10232000FFF76CFE8448002400EB85154FF0010197
:10233000285D16B1FFF7F2FD01E0FFF727FE641CF0
:10234000E4B2102CF2D37F1CF9B24046FFF756FEE0
:102350005FF0000405EB04004FF0010190F820004D
:1023600016B1FFF7DBFD01E0FFF710FE641CE4B2DD
:10237000102CEFD3BFE62DE9F0479846174682466A
:1023800000260C46DDF8209012E021465046FFF76B
:1023900035FE554608E000BF19F806000121761CFD
:1023A000FFF7BCFD6D1CEDB2BD42F5D3641CE4B279
:1023B0004445EAD322E7F8B5002501210820FEF7BD
:1023C00058FD4FF44070ADF8000010245B4E8DF8BE
:1023D000034003278DF8027069463046FEF75FFB25
:1023E00001210820FEF745FD3820ADF800008DF8EA
:1023F00003408DF8027069463046FEF750FB3821E5
:102400003046FEF7BAFB20213046FEF7B6FB40F619
:10241000B83400206D1C401CC828FCDBA542F8DB4A
:10242000002520213046FEF7AAFB00216D1C491C27
:10243000C829FCDBA542F8DB20213046FEF79DFBD6
:102440000021AE20FFF76AFD00210846FFF766FD78
:1024500000211020FFF762FD00214020FFF75EFD04
:1024600000218120FFF75AFD0021CF20FFF756FD04
:102470000021A120FFF752FD0021C820FFF74EFDEB
:102480000021A620FFF74AFD0021A820FFF746FD06
:1024900000213F20FFF742FD0021D320FFF73EFD42
:1024A00000210846FFF73AFD0021D520FFF736FD51
:1024B00000218020FFF732FD0021D920FFF72EFDFB
:1024C0000021F120FFF72AFD0021DA20FFF726FD89
:1024D00000211220FFF722FD0021DB20FFF71EFD67
:1024E00000214020FFF71AFD00212020FFF716FDF4
:1024F00000210220FFF712FD00218D20FFF70EFDC5
:1025000000211420FFF70AFD0021A420FFF706FD9B
:102510000021A620FFF702FD0021AF20FFF7FEFCFF
:102520000021AF20FFF7FAFCFFF799FD00210846D4
:10253000FFF764FDE2E600007C000020000C014093
:1025400030B50C480A490024C1600B4901630C4BAB
:1025500004600A4A4163C0E908230A484D07C56080
:10256000094D0460C0E90C51C0E9082330BD0000EA
:10257000CDCC4C3D800700200AD7233C00007A4593
:102580000000FA43C8070020CDCC4C3E38B52020CF
:10259000ADF8000048248DF803406946FE48FEF778
:1025A0007EFA0220ADF80000FC4D8DF8034069462C
:1025B0002846FEF774FA2815ADF800008DF80340A0
:1025C00069462846FEF76BFAE814ADF800008DF86E
:1025D000034069462846FEF762FAA814ADF80000E9
:1025E0008DF8034069462846FEF759FA38BDEC4895
:1025F0008169012903D001218161C16170470021F6
:10260000FAE770B5E64D0024E64E6C81214630466F
:10261000FFF7C1F900213046FFF7BFF9002130462E
:10262000FFF7B9F900F04EFC2C826C61AC70012010
:102630002872DD48EC81AC818483DC488485C485C4
:1026400044848484DA488460446084624464C4615D
:102650000460C4628461446104640461C463D54855
:102660008460446084624464C4610460C4628461C0
:10267000446104640461C46370BD70B5C84DCC4C42
:102680002E78022E01D0032E04D1CB49206801F010
:10269000F5FA2060012E0AD1288A4FF47A61401E93
:1026A00080B2288248436421B0FBF1F06861288A37
:1026B0000A2801D20A202882C0482168814200DA13
:1026C000206070BD70B5B64DB94C2E78022E01D089
:1026D000032E04D1B849206801F0E4F82060012EEF
:1026E0000AD1288A4FF47A61401C80B2288248437C
:1026F0006421B0FBF1F06861288A502801D950208C
:102700002882AF482168814200DD206070BD10B58D
:1027100000F0FAFBA248012181700178012907D05D
:10272000022901D0032902D1A149A648086010BDA1
:1027300014210182A4496422B1FBF2F1416110BD70
:1027400070B520219448FEF704FAA04C322520B938
:10275000208810B9FFF7DBFF2580904E022130461C
:10276000FEF7F7F920B9208810B9FFF74AFF258056
:102770004FF480613046FEF7ECF920B9208810B99B
:10278000FFF7A0FF25804FF400613046FEF7E1F926
:1027900020B9208810B9FFF770FF25804FF48051D1
:1027A0003046FEF7D6F90028208805D0002802D050
:1027B0002088401E208070BD0028F9D1FFF721FF3E
:1027C000FFF715FF2580F3E7F8B501230622002166
:1027D0002020FFF79FFD0123072200213020FFF773
:1027E00099FD0123082200214020FFF793FD0123DA
:1027F000092200215020FFF78DFD694C102520781B
:10280000022801D003286BD10022012302211046A7
:10281000FFF780FD01231A4602211020FFF77AFD01
:102820000222012311462020FFF774FD0123032219
:1028300002213020FFF76EFDE069012805D1012358
:1028400063A202215020FFF7DBFCE06928B90123D5
:1028500060A202215020FFF7D3FC554E306801F0F2
:102860008FF80246042302215A200095FFF797FCB7
:102870002078022801D0032832D1042201231146F6
:102880000020FFF747FD0123052204211020FFF758
:1028900041FD0123022204212020FFF73BFD0123FB
:1028A000032204213020FFF735FD706801F068F83D
:1028B0000246042319465A200095FFF770FCE06990
:1028C000012805D1012342A204215020FFF798FCE2
:1028D000E06928B901233FA204215020FFF790FCB2
:1028E0002078012848D10123142203210020FFF77A
:1028F00011FD0123152203211020FFF70BFD0123F9
:10290000162203212020FFF705FD0095228A0423CB
:1029100003215A20FFF743FC01232EA2032150205C
:10292000FFF76EFC01230D2206210820FFF7F2FCC1
:1029300001230E2206211820FFF7ECFC01230F22B1
:1029400006212820FFF7E6FC01231022062138206B
:10295000FFF7E0FC0123112206214820FFF7DAFCF3
:102960000123122206215820FFF7D4FC0123132251
:1029700006216820FFF7CEFC207802284AD10123E7
:102980000D2206210820FFF7C5FC01230E22062197
:102990001820FFF7BFFC1FE000100140000C0140B1
:1029A00000000020002C01405008002010080020EA
:1029B00080070020C8070020000020410000964347
:1029C00000401C4500006144803801007C07002065
:1029D0002D0000002000000001230F2206212820E6
:1029E000FFF798FC0123102206213820FFF792FC04
:1029F0000123172206214820FFF78CFC012318220F
:102A000006215820FFF786FC0123192206216820A1
:102A1000FFF780FC207803282CD101230D2206210A
:102A20000820FFF777FC01230E2206211820FFF76C
:102A300071FC01230F2206212820FFF76BFC0123E4
:102A4000102206213820FFF765FC01231A220621F7
:102A50004820FFF75FFC0123182206215820FFF7CA
:102A600059FC01B00123BDE8F0401922062168207D
:102A7000FFF750BCF8BD00002DE9F05F0121B5481B
:102A8000FEF7AEFFFFF76AF8B34CA07801281DD11E
:102A9000207A012813D0022818D100BFFFF795F83B
:102AA000FFF737F9207801280ED0A146DFF8ACA255
:102AB0000026DFF8ACB2AB4C022809D06EE000F083
:102AC000A5FB02202072E9E7A08A6081BDE8F09FA3
:102AD000B9F80C10491C89B2A9F80C100229F5D9D3
:102AE000BAF8240000F084FF01466060206801F01D
:102AF000C5F80146A060E06800F0C2FF0146206111
:102B0000206B00F0BDFF616900F0CCFE6061216ABE
:102B100001F082F801D2206A00E060696061616AB8
:102B200000F07AFF01D2656A00E065696561D4F85A
:102B30001080E16B404601F0A1F8A16B00F0A0FF0E
:102B40000746A0612946404600F0ACFE394600F039
:102B5000A9FEA062216A01F05FF801D2206A00E0BC
:102B6000A06AA062616A00F057FF01D2606A00E0CB
:102B7000A06AA0622169E163594600F081FF054621
:102B80007949606C00F07CFF294600F08BFE6064A0
:102B90004D46A9F80C6000F0F3FE688199F800003A
:102BA0004D46032892D1A889401C80B2A881E989AA
:102BB000491CE981022858D9BAF8240000F018FF0E
:102BC00001466060206801F059F80146A060E068A5
:102BD00000F056FF01462061206B00F051FF616953
:102BE00000F060FE6061216A01F016F801D2206AEF
:102BF00000E060696061616A00F00EFF01D2606A06
:102C000000E060696061276980463846E16B01F049
:102C100035F8A16B00F034FF8146A061414638468B
:102C200000F040FE494600F03DFEA062216A00F03F
:102C3000F3FF01D2206A00E0A06AA062616A00F09E
:102C4000EBFE01D2606A00E0A06AA0622169E16344
:102C5000594600F015FF07464349606C00F010FF2D
:102C6000394600F01FFE6064AE81E8893F4F0128BD
:102C70005DD94048DFF8F880C7F80080406800F070
:102C80009FFE01467860404600F0F8FF0146B860BC
:102C9000F86800F0F5FE01463861386B00F0F0FE90
:102CA000796900F0FFFD7861396A00F0B5FF01D263
:102CB000386A00E078697861796A00F0ADFE01D287
:102CC000786A00E078697861D7F810A080465046AD
:102CD000F96B00F0D3FFB96B00F0D2FE8146B8610A
:102CE0004146504600F0DEFD494600F0DBFDB8628B
:102CF000396A00F091FF01D2386A00E0B86AB86220
:102D0000796A00F089FE01D2786A00E0B86AB86298
:102D10003969F963594600F0B3FE80461249786C70
:102D200000F0AEFE414600F0BDFD7864EE81616CBE
:102D3000786C00F071FF06D2606C00F021FE6881B3
:102D400060697861C2E6786C00F01AFE6881786983
:102D50006061BBE6002C014000000020100800204C
:102D6000179AAB3D80070020BD8C6A3FC807002042
:102D700000007F432000002038B501210C20FEF721
:102D800078F80121C802FEF774F84FF4E060ADF85E
:102D9000000003248DF8024018208DF803006946D6
:102DA000B648FDF77CFE4FF46040ADF800001020FF
:102DB0008DF803008DF802406946B148FDF76FFEBB
:102DC00038BD70B5AF4E8CB03046FEF7A1F8FFF7B6
:102DD000D3FF002440F69F70ADF82400ADF82040EA
:102DE000ADF82240ADF826408DF8284008A93046BD
:102DF000FEF726F96020ADF800000420ADF80400CD
:102E00000125ADF80840ADF80C40ADF80250ADF822
:102E10000640ADF80A40ADF80E4069463046FEF770
:102E200048F969463046FEF779F969463046FEF7BB
:102E3000B1F908213046FEF78AFC08213046FEF73A
:102E400097FC08213046FEF79DFCE802ADF8100023
:102E50004010ADF81200ADF814406A20ADF816002D
:102E6000A803ADF81840ADF81C00ADF81A4004A94D
:102E70003046FEF759FB01213046FEF7B1FD012136
:102E80003046FEF7BCFD012211463046FEF796FBA8
:102E900001213046FEF77DFB01213046FEF783FB22
:102EA0004FF4A060FDF7D0FA19208DF82C008DF8B2
:102EB0002D408DF82E408DF82F500BA8FDF7C9FA44
:102EC0000CB070BD10B56F4C002211462046FEF7C5
:102ED000E7FC002211462046FEF7EDFC002204210B
:102EE0002046FEF7DDFC002204212046FEF7E3FC2D
:102EF000002208212046FEF7D3FC20460022BDE830
:102F000010400821FEF7D7BC10B55E4C012200210D
:102F10002046FEF7C5FC042200212046FEF7CBFC2C
:102F2000012204212046FEF7BBFC04221146204664
:102F3000FEF7C1FC012208212046FEF7B1FC204625
:102F40000422BDE810400821FEF7B5BC4D49002021
:102F500010B5383108804C494A4A343249891180C9
:102F600048493C310880464C4FF420412046FDF74B
:102F700006FE2046BDE810404FF48041FDF7FDBD40
:102F80004049002010B5383108803F493D4A34326D
:102F9000498911803B493C310880394C4FF4C0418C
:102FA0002046FDF7ECFD2046BDE810404FF40041FF
:102FB000FDF7E3BD3349002010B5343108803249B4
:102FC000304A383249891180111D08802C4C4FF449
:102FD000C0412046FDF7D3FD2046BDE810404FF428
:102FE0000041FDF7CABD2749002010B534310880E3
:102FF0002549244A383249891180111D0880204C06
:103000004FF440412046FDF7BAFD61142046BDE86B
:103010001040FDF7B2BD1B49002010B538310880C3
:103020001949184A3C3249891180164934310880BF
:10303000134C4FF440412046FDF7A1FD611420469A
:10304000BDE81040FDF799BD0E49002010B538319C
:1030500008800D490B4A3C324989118009493431B5
:103060000880074C4FF420412046FDF788FD20469C
:10307000BDE810404FF48041FDF77FBD00080140DE
:10308000000C0140002C01400000002070B501211F
:103090001D20FDF7EEFE01211848FDF78FFD1848B1
:1030A00064210068B0FBF1F0B0F1807F14D220F011
:1030B0007F404FF0E024401E606165170F212846D5
:1030C00000F00BF80020A061072020612846BDE831
:1030D0007040002100F001B8FEE70907090E002842
:1030E00006DA00F00F0000F1E02080F8141D7047B0
:1030F00000F1E02080F8001470470000000230006A
:1031000050000020C000401EFDD270474FF4FA511D
:103110004843401EFDD270472DE9F041574C584DB1
:10312000584FA0690026E0B9E888062816D2DFE8E3
:1031300000F00306090C0F12FFF755FF11E0FFF72F
:103140006AFF0EE0FFF780FF0BE0FFF7FFFE08E0ED
:10315000FFF716FF05E0FFF72DFF02E0FFF7B2FED5
:103160007E84A069012822D1E88806281CD2DFE8E5
:1031700000F017130F0B0703BDE8F041FFF733BF53
:10318000BDE8F041FFF747BFBDE8F041FFF75CBF86
:10319000BDE8F041FFF7DABEBDE8F041FFF7F0BE51
:1031A000BDE8F041FFF706BFFFF78CFE7E84BDE867
:1031B000F081334864223149808B01281ED00228D7
:1031C0001CD003281AD0042818D0052818D0DC22D7
:1031D000062813D0072811D0FA2208280ED0092873
:1031E0000CD00A280AD00B280CD052000C2805D08D
:1031F0000D2803D00E2801D00F2800D14A81704736
:10320000C82001E04FF496704881704770B51C4D9E
:103210001A484FF496746C804481FFF7E4FE052051
:10322000FFF774FF2C8000262C466E834FF4487203
:1032300005E01046FFF766FF608B401C6083618BE2
:1032400020888142F5D380B20F21B0FBF1F1401A02
:10325000401E2080A08B401CA083FFF7AAFF20887F
:10326000192809D3E088401C80B2E080062800D1EC
:10327000E680FFF751FFD7E770BD00000000002097
:1032800050080020100800207047704770477546AE
:1032900000F02CF8AE4605006946534620F00700C2
:1032A000854618B020B5FDF7BDF8BDE820404FF0C9
:1032B00000064FF000074FF000084FF0000B21F020
:1032C0000701AC46ACE8C009ACE8C009ACE8C009ED
:1032D000ACE8C0098D46704710B50446AFF30080D6
:1032E0002046BDE81040FCF78EBF00000048704744
:1032F0003812002001491820ABBEFEE7260002006C
:103300007047000010B591EA030F48BF83F00043F7
:1033100000F1E681841A71EB030C05D2121943EB1C
:103320000C03001B61EB0C01DFF824E14FEA1154A0
:10333000A4EB135C1EEA430F18BF9EEA445F73D0F0
:1033400023EA0E03DCF1200E21EA045143F480133A
:1033500032D322FA0CFE10EB0E0023FA0CFE41EBE6
:103360000E01CCF1200E03FA0EFE10EB0E0051F10F
:103370000001B1F5801FCCF1200E32D201EB0451D7
:1033800012FA0EF2BDE8104058BF7047401C38BF1B
:103390005FEA420218BF7047002814BF20F0010006
:1033A00041F100014FEA410313F5001F38BF704798
:1033B000A1F1C04100F086B9012A43EB0302ACF150
:1033C000200CDCF11F0E32BF4FF0000E23FA0CF37D
:1033D00010EB030041EB0451B4EB115FD0D0A1EB33
:1033E000045101F5801149085FEA300001EB0451F6
:1033F0000ED350F1000038BF12FA0EFE08D1BDE81E
:103400001040C9E7401C38BF5FEA4202CAD1C3E797
:10341000BDE810404FEA410313F5001F38BF704765
:10342000A1F1C04100F04EB99EEA445F08D011EA14
:103430005E0FBDE8104004BF01F00041002070475E
:10344000BDE8104070B500F0EFF800BF64FBBE3E71
:103450000000E0FF4FEA1153A3F58063D3F11E0390
:10346000A8BFD3F1200C08DB4FF0004242EAC12292
:1034700052EA505232FA03F0704709420BD4102B33
:10348000C4BF0020704703F5787CBCF1FF3F05D036
:103490004FF0FF3070474FF00000704770B500F0FC
:1034A000C3F800BF4992248000207047F0E7B0FACB
:1034B00080F310FA03F10AD0C3F11D0303F5806312
:1034C0004FEA41504FEA035202EBD12170474FF0CF
:1034D00000007047DFF848C170B51CEA111E1EBF1E
:1034E0001CEA13159EEA0C0F95EA0C0F00F06F8092
:1034F00081EA030423EA4C134EEAD47E21EA4C11FC
:1035000041F4801143F48013AE44A1FB024CA0FBB4
:103510000365AEF17F7E361955EB0C05A1FB034C1C
:103520004CF10003A0FB021C16EB0C06654153F1A5
:103530000003094218BF46F0010613F4007F0BD1C7
:103540004FEA03314FEA0530340341EA155140EAAE
:1035500016506FF003020AE04FEAC3214FEAC5207C
:10356000F40241EA555140EA56506FF0020202EB74
:103570002E4201EB025585EACE710AD05FEA440C77
:1035800018BF24F0004450F1000041F1000120EA8E
:10359000D47040F2FE7C624500D270BDA84214BFD8
:1035A0004FF080444FF04044002E08BF0024BEF18D
:1035B000806FA8BFA1F1C041BDE8704080F2828059
:1035C0004FF0000001F1C04101F0004170479EEA58
:1035D0000C0F0CEA131518BF95EA0C0F06D04FF02C
:1035E000000081EA030E0EF0004170BD00F01CF8EF
:1035F0008900013E00F007B800F009B84FEA430C1B
:103600005FEA5C5C08D081EA030100F05BB84FEA36
:10361000410C5FEA5C5CF6D14FF000000149704755
:103620000000FF070000F87F0EF1020E2EF0030EDF
:103630005EF8046B364205D4012A43EB030515F509
:10364000001F12D8012841EB010C1CF5001F0CD8FB
:103650000ED14FEAD17C15F5001F0CEB4C0C0CF190
:10366000020C08BF4CEBD37C04E04FF0080C01E0E7
:103670004FEAD37C0CEB4C0526FA05F606F007065C
:10368000B6F1040C06D20EEB860CBDE870404CF08F
:10369000010C6047DFE80CF0090B02024FF000411B
:1036A0004FF00000A1F5002170BD19461046012819
:1036B00051EB010418BFD4F5001484BF002001F0C1
:1036C000004170BD0808A0F500114FEA31017047B4
:1036D00010B591EA030F48BF83F000433FF51AAEDF
:1036E000841A71EB030C07D212198CF0004C43EBD7
:1036F0000C03001B61EB0C01DFF8A4E14FEA11544D
:10370000A4EB135C1EEA430F18BF9EEA445F00F06F
:10371000B08023EA6E03524221EA0451C3EB6E03E8
:1037200038BF5B1EDCF1200E25D322FA0CFE10EB15
:103730000E0043FA0CFE41EB0E01CCF1200E03FA11
:103740000EFE10EB0E0051F10001CCF1200E29D439
:1037500012FA0EF201EB0451BDE8104058BF704759
:10376000401C1CBFB2F1004F704700280CBF491C21
:1037700020F00100704712EB020E43EB030218BF6A
:103780004FF0010E4EEA4202ACF1200CDCF11E0EAD
:1037900054D943FA0CFE10EB0E0051F1FF31CCF17D
:1037A0001E0ED5D50EF1010E12FA0EFE404141EB70
:1037B000010101EB445C5FEA5C5C10D910EBDE7048
:1037C00001EB045138BFBEF1004FBDE8104018BFF7
:1037D000704700280CBF491C20F00100704730D210
:1037E0004FEAD42C11F5001124F400641BD0B1FA77
:1037F00081F20B3AA41AA41ED2F12003914030FAB0
:1038000003F31943904001EBCC71002C01EB045100
:10381000BDE81040A8BF704701F1C0414FF0000063
:1038200001F000417047B0FA80F310FA03F100D1C3
:1038300010BDE41A173C4805C90AE4E701EB04513E
:1038400010BD491001EB0451BDE810404FEA3000B3
:1038500002E04FF0000170474A0008BF0042F8D074
:10386000B2F5001F28BF704701F000414FF0000083
:1038700070479EEA445F07D011EA5E0FBDE8104032
:1038800004BF002100207047BDE8104070B5FFF76D
:10389000CBFE00BF40DFF63E83F00041104670478C
:1038A0000000E0FF90EA010F48BF81F0004100F105
:1038B000EC81421A3CBF801A89184FEAD0524FF06F
:1038C0007F4C1CEA410FA2EBD15318BF9CEA026F58
:1038D00000F03B804FF0004C4CEA00204CEA012104
:1038E00021FA03FC10EB0C0C1ED202F1FF325FEA4E
:1038F0001C2040EBC25038BF70471CF07F0F4FEACE
:10390000400C18BFBCF17F4F38BF7047C3F1200394
:10391000994008BF20F00100BCF17F4F38BF7047CD
:10392000A0F1C04000F073B94FEA3C00000A40EB40
:10393000C25028BF1CF0FF0F4FEA400CE6D018BF62
:10394000BCF17F4F38BF7047EAE79CEA026F05D0B1
:1039500010EA5C0F08BF00F00040704710B500F09F
:1039600010F900BF64FBBE3E401058BFC0F140409C
:10397000491058BFC1F140418142EFF300807047C8
:10398000C10DD1F19E0206DB4FEA002343F0004354
:1039900023FA02F07047004207D54FEA4001B1F127
:1039A000FE4F02D24FF00000704710B500F0E9F86A
:1039B00049922480002070476FEA20007047000081
:1039C00010F0004148BF4042B0FA80F310FA03F211
:1039D000C3F19D030BD051EAC35101EB12205306F2
:1039E00038BF704700F1010008BF20F001007047A8
:1039F000B0FA80F310FA03F2C3F19D030AD0D9059F
:103A000001EB1220530638BF704700F1010008BFD8
:103A100020F001007047000050EA010C00F1138013
:103A20001CF5000F58BFBCF5000F01D48842704749
:103A300007D710F5000F58BF11F5000F15D48842B5
:103A40007047894270471CF5000F04D5BCF5000F84
:103A5000F7D5814270474FF0807C1CEB400F38BF98
:103A60001CEB410F01D28142704710B500F089F87C
:103A7000922449004FF000504FF08051FFF774BF7F
:103A80004FF47F0C1CEAD0121EBF1CEAD11392EA3D
:103A90000C0F93EA0C0F00F0478090EA010F48BF2B
:103AA00042F480724FF0004C4CEA00204CEA0121B5
:103AB00002EB0302A0FB0113A2F50002002918BFCC
:103AC00043F001035B0028BF4FEA330342EB22427D
:103AD0005FEA132C4CEBC2502EBFBCEB436FB2F528
:103AE0007C0F70474FEA036CBCF1004F08BF20F019
:103AF0000100B2F57C0F38BF70470BD582F0FF0292
:103B000012F5803FC8BF704700F1C040D8BF00F039
:103B10000040704700F5000C5FEA4C0C48BF70474E
:103B2000B0F1C04000F073B890EA010F0CEAD11375
:103B300048BF42F48072624538BF634504D280EAD0
:103B4000010000F00040704710B500F01AF800BF07
:103B50008900013E00F007B800F009B85FEA410CA7
:103B60005FEA1C6C08D080EA010000F050B85FEA00
:103B7000400C5FEA1C6CF6D14FF00040A0F58000CD
:103B800070470EF1020E2EF0030E5EF8044B244235
:103B900004D44FEA4102B2F17F4F11D84FEA4003FB
:103BA000B3F17F4F0CD80ED14FEAD07CB2F17F4FEA
:103BB0000CEB4C0C0CF1020C08BF4CEBD17C04E07C
:103BC0004FF0080C01E04FEAD17C0CEB4C0324FAD7
:103BD00003F404F00704B4F1040C06D20EEB840CD9
:103BE000BDE810404CF0010C6047DFE80CF007081E
:103BF00002024FF00040A0F5800010BD08464200D0
:103C000018BFD2F1807288BF00F0004010BDFF21C4
:103C100041EAD050C005704751EA000C00F1138012
:103C20001CF5000F58BFBCF5000F01D4814270474E
:103C300007D711F5000F58BF10F5000F15D48142BA
:103C40007047894270471CF5000F04D5BCF5000F82
:103C5000F7D5884270474FF0807C1CEB410F38BF8E
:103C60001CEB400F01D28842704780EA010081EAD4
:103C7000000180EA0100FFF7F8BE000090EA010FA2
:103C800048BF81F000413FF514AE421A04D882F0DB
:103C90000042A0EB020011444FEAD0524FF07F4C9B
:103CA0001CEA410FA2EBD15318BF9CEA026F4AD025
:103CB0004FF0004C4CEA00204CEA012121FA03FCB1
:103CC000B0EB0C0C0FD412F0FE0F36D05FEA4C00B4
:103CD0001DD5001240EBC25038BF70471CF03F0F9B
:103CE00018BF70470BE0A2F101025FEA1C2040EB15
:103CF000C25038BF70471CF07F0F18BF7047C3F128
:103D00002003994014BF401E20F001007047800836
:103D10004FEA122308BF7047B0FA80FCA2EB0C02F6
:103D2000CCF1280C60FA0CF093EA122F04BF00EBE0
:103D3000C25070474FEAC3707047130A5FEADC1045
:103D400008BF7047F6E79CEA026F04D010EA5C0FE8
:103D500008BF0020704710B5FFF713FF40DFF63EA5
:103D600081F00040704700000000000000000000EB
:103D70000000000000003F400000000000000000C4
:103D80003000400030004000000009000BC03D0042
:103D90000BC03D00090018C024407FE02240318064
:103DA0000000180024C01B000D80324001800380F9
:103DB0001C4027401C8007400040100060000000AD
:103DC0000000000000000000000000001F802040F4
:103DD00040200000402020401F800000000009001B
:103DE00006001F80060009000000040004003F8058
:103DF000040004000000001000600000000000004B
:103E0000000004000400040004000400000000009E
:103E100000400000000000000000002001C006007B
:103E20003800400000001F802040204020401F80BC
:103E30000000000010403FC000400000000018C01B
:103E4000214022402440184000001080204024409F
:103E500024401B80000002000D0011003FC0014003
:103E600000003C80244024402440238000001F8028
:103E7000244024403440038000003000200027C04C
:103E80003800200000001B802440244024401B8078
:103E900000001C0022C0224022401F8000000000C1
:103EA0000000084000000000000000000000046066
:103EB000000000000000000004000A001100208043
:103EC0004040090009000900090009000000000045
:103ED0004040208011000A00040018002000234008
:103EE0002400180000001F802040274029401F4068
:103EF0000000004007C039000F0001C00040204012
:103F00003FC0244024401B8000001F8020402040F0
:103F100020403080000020403FC0204020401F80D3
:103F2000000020403FC024402E4030C00000204010
:103F30003FC024402E00300000000F0010802040C1
:103F400022403380020020403FC0040004003FC0F4
:103F50002040204020403FC0204020400000006022
:103F6000202020203FC02000200020403FC02440CF
:103F70000B0030C0204020403FC0204000400040A7
:103F800000C03FC03C0003C03C003FC000002040D8
:103F90003FC00C4023003FC020001F802040204035
:103FA00020401F80000020403FC024402400180013
:103FB00000001F802140214020E01FA00000204081
:103FC0003FC02440260019C0004018C024402440AF
:103FD000224031800000300020403FC020403000AF
:103FE000000020003F80004000403F802000200073
:103FF0003E0001C0070038002000380007C03C0028
:1040000007C038000000204039C0060039C02040F9
:1040100000002000384007C0384020000000304039
:1040200021C02640384020C00000000000007FE092
:10403000402040200000000070000C000380004081
:1040400000000000402040207FE000000000000051
:1040500020004000200000000000001000100010B0
:1040600000100010001000000000400000000000E0
:104070000000000002800540054003C00040200011
:104080003FC004400440038000000000038004405F
:1040900004400640000000000380044024403FC06C
:1040A0000040000003800540054003400000000080
:1040B00004401FC0244024402000000002E00550BE
:1040C00005500650042020403FC00440040003C0B7
:1040D00000400000044027C0004000000000001025
:1040E0000010041027E00000000020403FC0014005
:1040F000070004C00440204020403FC00040004072
:10410000000007C0040007C0040003C00000044012
:1041100007C00440040003C00040000003800440C6
:10412000044003800000041007F0045004400380A2
:104130000000000003800440045007F00010044019
:1041400007C00240040004000000000006400540D3
:10415000054004C00000000004001F80044000402F
:104160000000040007800040044007C00040040035
:10417000070004C0018006000400060001C007001B
:1041800001C006000000044006C0010006C0044053
:1041900000000410071004E0018006000400000085
:1041A000044005C006400440000000000000040078
:1041B0007BE040200000000000000000FFF0000055
:1041C0000000000040207BE00400000000004000F0
:1041D000800040002000200040000000000000009F
:1041E00000000000000000000000000000000000CF
:1041F0001FCC000C00000000000000000800300090
:1042000060000800300060000000022003FC1E2057
:10421000022003FC1E200220000000000E181104E2
:104220003FFF10840C78000000000F0010840F384E
:1042300000C0077818840078000000780F8410C44C
:1042400011240E9800E40084000808006800700043
:10425000000000000000000000000000000000005E
:1042600007E018182004400200000000400220046B
:10427000181807E000000000000002400240018022
:104280000FF00180024002400000008000800080AA
:104290000FF800800080008000000001000D000E7B
:1042A000000000000000000000000000008000800E
:1042B000008000800080008000800000000C000C66
:1042C00000000000000000000000000000060018D0
:1042D00000600180060018002000000007F00808B8
:1042E00010041004080807F0000000000804080487
:1042F0001FFC000400040000000000000E0C10145D
:104300001024104411840E0C000000000C1810043E
:104310001104110412880C700000000000E003205A
:10432000042408241FFC0024000000001F981084AF
:1043300011041104108810700000000007F00888B4
:104340001104110418880070000000001C00100007
:1043500010FC13001C001000000000000E38114477
:104360001084108411440E38000000000700088CEF
:1043700010441044088807F000000000000000000E
:10438000030C030C0000000000000000000000010E
:104390000106000000000000000000000080014055
:1043A000022004100808100400000220022002204D
:1043B0000220022002200220000000001004080851
:1043C0000410022001400080000000000E001200D6
:1043D000100C106C10800F00000003E00C1813E4A8
:1043E000142417C4082807D000000004003C03C4AC
:1043F0001C40074000E4001C000410041FFC1104D2
:10440000110411040E880070000003E00C18100461
:104410001004100410081C10000010041FFC1004ED
:1044200010041004080807F0000010041FFC110419
:10443000110417C410040818000010041FFC110414
:10444000110017C010000800000003E00C18100451
:10445000100410441C780040000010041FFC10845D
:104460000080008010841FFC100400001004100461
:104470001FFC1004100400000000000300011001E4
:1044800010011FFE10001000000010041FFC11049A
:1044900003801464181C1004000010041FFC100496
:1044A000000400040004000C000010041FFC1F00A6
:1044B00000FC1F001FFC1004000010041FFC0C0473
:1044C000030000E010181FFC100007F0080810049B
:1044D00010041004080807F0000010041FFC1084EA
:1044E0001080108010800F00000007F008181024C2
:1044F0001024101C080A07F2000010041FFC11040D
:10450000110011C011300E0C000400000E1C11042B
:104510001084108410441C3800001800100010048F
:104520001FFC100410001800000010001FF81004F9
:104530000004000410041FF8100010001E0011E019
:10454000001C007013801C0010001FC0103C00E015
:104550001F0000E0103C1FC000001004180C1634AF
:1045600001C001C01634180C100410001C00130404
:1045700000FC13041C00100000000804101C106450
:10458000108413041C041018000000000000000038
:104590007FFE4002400240020000000030000C009C
:1045A00003800060001C0003000000004002400285
:1045B00040027FFE0000000000000000000020001C
:1045C0004000400040002000000000010001000108
:1045D0000001000100010001000100004000400056
:1045E00020000000000000000000000000980124EE
:1045F00001440144014400FC000410001FFC008839
:1046000001040104008800700000000000700088B0
:10461000010401040104008800000000007000880B
:104620000104010411081FFC0004000000F801440B
:1046300001440144014400C80000000001040104D9
:104640000FFC1104110411001800000000D601290C
:104650000129012901C90106000010041FFC008482
:1046600001000100010400FC000400000104190421
:1046700019FC000400040000000000000003000119
:104680000101190119FE0000000010041FFC0024A4
:10469000004001B4010C01040000000010041004EB
:1046A0001FFC0004000400000000010401FC0104E0
:1046B000010001FC0104010000FC010401FC008474
:1046C00001000100010400FC0004000000F80104E6
:1046D00001040104010400F80000010101FF00854C
:1046E00001040104008800700000000000700088D0
:1046F00001040104010501FF00010104010401FCA2
:1047000000840104010001800000000000CC0124AD
:10471000012401240124019800000000010001008F
:1047200007F80104010400000000010001F8000482
:1047300000040004010801FC000401000180017074
:10474000000C001001600180010001F0010C00303C
:1047500001C00030010C01F0010000000104018CD7
:1047600000740170018C01040000010101810171DC
:10477000000E001801600180010000000184010C9E
:10478000013401440184010C00000000000000001D
:10479000000001003EFC400240020000000000005A
:1047A0000000FFFF00000000000000004002400287
:1047B0003EFC0100000000000000000060008000DE
:1047C00080004000400020002000000000000000A9
:1047D00000000000000000000000000000F80000E1
:1047E0000000000000333000000000100C06100C28
:1047F0000600000000000000000040C07840C078C3
:104800004000043F04043F040400007088FC0830AA
:104810000000001820FF211E0000F008F000E01842
:10482000000000211C031E211E0000F008887000FB
:1048300000001E2123241927211010160E0000004D
:1048400000000000000000000000000000E018046C
:104850000200000000071820400000020418E000D9
:1048600000000040201807000000404080F0804019
:1048700040000202010F01020200000000F00000EF
:1048800000000101011F0101010000000000000003
:10489000000080B070000000000000000000000078
:1048A0000000000101010101010100000000000001
:1048B00000000030300000000000000000008060B8
:1048C0001804006018060100000000E0100808103D
:1048D000E000000F102020100F00001010F8000062
:1048E00000000020203F20200000007008080888F9
:1048F00070000030282422213000003008888848C9
:1049000030000018202020110E000000C02010F8F8
:10491000000000070424243F240000F808888808C9
:1049200008000019212020110E0000E010888818CE
:104930000000000F112020110E0000380808C838B0
:1049400008000000003F0000000000708808088890
:104950007000001C222121221C0000E01008081019
:10496000E0000000312222110F00000000C0C00052
:104970000000000000303000000000000080000057
:104980000000000080600000000000008040201057
:104990000800000102040810200040404040404050
:1049A00040000404040404040400000810204080B3
:1049B00000000020100804020100007048080808E8
:1049C000F0000000003036010000C030C828E810B8
:1049D000E0000718272423140B000000C038E00073
:1049E0000000203C23020227382008F888888870BD
:1049F0000000203F202020110E00C03008080808C9
:104A00003800071820202010080008F808080810AF
:104A1000E000203F202020100F0008F88888E808D8
:104A20001000203F20202320180008F88888E8087C
:104A30001000203F200003000000C03008080838A4
:104A4000000007182020221E020008F808000008B5
:104A5000F808203F210101213F20000808F808083C
:104A600000000020203F2020000000000808F80877
:104A70000800C08080807F00000008F888C02818E7
:104A80000800203F20012638200008F80800000018
:104A90000000203F20202020300008F8F800F8F81F
:104AA0000800203F003F003F200008F830C0000809
:104AB000F808203F200007183F00E0100808081001
:104AC000E0000F10202020100F0008F80808080848
:104AD000F000203F210101010000E010080808104B
:104AE000E0000F18242438504F0008F88888888880
:104AF0007000203F2000030C302000708808080858
:104B000038000038202121221C00180808F8080865
:104B100018000000203F2000000008F808000008EE
:104B2000F808001F202020201F000878880000C8F7
:104B30003808000007380E010000F80800F80008E7
:104B4000F800033C0700073C0300081868808068F1
:104B5000180820302C03032C30200838C800C8382F
:104B600008000000203F2000000010080808C83896
:104B700008002038262120201800000000FE020234
:104B800002000000007F40404000000C30C00000E8
:104B90000000000000010638C00000020202FE0012
:104BA0000000004040407F000000000004020202BC
:104BB00004000000000000000000000000000000F1
:104BC00000008080808080808080000202040000DD
:104BD00000000000000000000000000080808080D5
:104BE00000000019242222223F2008F800808000C3
:104BF0000000003F112020110E0000000080808086
:104C00000000000E1120202011000000008080888C
:104C1000F800000E112020103F20000080808080CE
:104C20000000001F222222221300008080F08888CA
:104C300088180020203F2020000000008080808015
:104C40008000006B94949493600008F8008080804A
:104C50000000203F210000203F20008098980000A5
:104C600000000020203F20200000000000809898D5
:104C7000000000C08080807F000008F80000808075
:104C80008000203F24022D302000000808F800009A
:104C900000000020203F2020000080808080808055
:104CA0008000203F20003F20003F808000808080E7
:104CB0000000203F210000203F20000080808080F5
:104CC0000000001F202020201F0080800080800026
:104CD000000080FFA12020110E00000000808080D5
:104CE0008000000E112020A0FF8080808000808046
:104CF000800020203F212000010000008080808073
:104D000080000033242424241900008080E0808067
:104D100000000000001F20200000808000000080B4
:104D20008000001F202020103F2080808000008015
:104D3000808000010E300806010080800080008025
:104D400080800F300C030C300F00008080008080CA
:104D500080000020312E0E312000808080000080F5
:104D6000808080818E7018060100008080808080A5
:104D700080000021302C2221300000000000807CC7
:104D8000020200000000003F404000000000FF0061
:104D9000000000000000FF0000000002027C800014
:104DA00000000040403F0000000000060101020238
:104DB000040400000000000000000000DC4D0008BA
:104DC00000000020800700006C010008DC50000893
:104DD0008007002018110000D001000852000103D4
:104DE000380100016006E8030000180D7004A24AB3
:104DF0000454600C020304060708090204060810A4
:104E00006114413A63FE22010213FE5A63FF42011C
:104E10000211FF7810081010D0FF9010203E12E20F
:104E200048F22020F010040300FF00130C03408020
:104E30007F00010618B8000F11404042CC0004F476
:104E40009494FF9494F404D9000F1140201F20483B
:104E50004442415F4142444840A02009FC242424AC
:104E6000FC2526240801104100101040308F80845A
:104E70004C55252525554C808080C0100A0C048493
:104E800014640506F404010310140CC0000E118410
:104E900084444724140C070C14244484A1040618E9
:104EA000FE225A86000004071800FF0408071000BD
:104EB000100800FE020202F292010405118A8A8A99
:104EC00082D910077F406058474001227F050511B5
:104ED000FA11D42404E00204FC021040DF11E019AE
:104EE00019223F40F406407800010E5F100A242486
:104EF000A4FEA3220022CCAA091258240708060106
:104F0000FF00011D1304FFAA091100100A10FF1071
:104F10009008888888FF0406100840040E10448218
:104F20007F01808040432C10284681801158140551
:104F300084E43C27C41324E46609104010060201EF
:104F400000FF090108041349897FF920094020184E
:104F50000F0808F808010D111803F4108181414170
:104F600021110D030D1121414181810040062020B6
:104F700020BEAA0112BE0C05115F1380AF1C12FFE8
:104F8000200A11AF3F15751D19031C05C27E42C2D0
:104F9000260305129F8404804020830E1270600354
:104FA000080D10FC04D4545454D4047F84C536C076
:104FB0000410108866010063828292AB8482C10271
:104FC00024CFA021011404F8898E810613880211D0
:104FD000812B18071C0712403F3F44081060020C49
:104FE000C000F8C00E10A8A00304091704047C0335
:104FF00080601F80C0180934C404C43C0004FC2134
:1050000011080D11800310050C030C3085080511E3
:10501000130C1320A1100680828282FE044106092F
:1050200011C14C058040300F49030513FF1DA0033B
:105030001004FC8484A708051184E41C844038070C
:105040002060201F1010461D0D050E16063F053668
:10505000FF4809134263FF41010D1300051C080CB2
:105060004424140405063D040F11244440041DE1AA
:1050700004213B227F450D13BF033F00FED8032AC6
:10508000FF290912C17C07007F20201010C30309EB
:1050900010400C0C13F8494A4C48F8484C4A49F85F
:1050A000A0051313120122FF0512134801103F1F20
:1050B0000122BE051FA2FABE040E12020106280933
:1050C000FF0008040211201F4306507F80093E4064
:0C50D0000D3F4004000400000000000040
:0400000508000131BD
:00000001FF
